{
  "contractName": "SparksoICO",
  "abi": [
    {
      "inputs": [
        {
          "internalType": "address",
          "name": "systemAddress_",
          "type": "address"
        },
        {
          "internalType": "address payable",
          "name": "wallet_",
          "type": "address"
        },
        {
          "internalType": "address",
          "name": "token_",
          "type": "address"
        },
        {
          "internalType": "address",
          "name": "MATICUSD_",
          "type": "address"
        },
        {
          "internalType": "address",
          "name": "EURUSD_",
          "type": "address"
        }
      ],
      "stateMutability": "nonpayable",
      "type": "constructor"
    },
    {
      "anonymous": false,
      "inputs": [
        {
          "indexed": true,
          "internalType": "address",
          "name": "previousOwner",
          "type": "address"
        },
        {
          "indexed": true,
          "internalType": "address",
          "name": "newOwner",
          "type": "address"
        }
      ],
      "name": "OwnershipTransferred",
      "type": "event"
    },
    {
      "anonymous": false,
      "inputs": [
        {
          "indexed": false,
          "internalType": "uint256",
          "name": "amount",
          "type": "uint256"
        }
      ],
      "name": "Released",
      "type": "event"
    },
    {
      "anonymous": false,
      "inputs": [],
      "name": "Revoked",
      "type": "event"
    },
    {
      "anonymous": false,
      "inputs": [
        {
          "indexed": true,
          "internalType": "address",
          "name": "purchaser",
          "type": "address"
        },
        {
          "indexed": true,
          "internalType": "address",
          "name": "beneficiary",
          "type": "address"
        },
        {
          "indexed": false,
          "internalType": "uint256",
          "name": "value",
          "type": "uint256"
        },
        {
          "indexed": false,
          "internalType": "uint256",
          "name": "EURvalue",
          "type": "uint256"
        },
        {
          "indexed": false,
          "internalType": "uint256",
          "name": "amount",
          "type": "uint256"
        },
        {
          "indexed": false,
          "internalType": "bool",
          "name": "cliff",
          "type": "bool"
        },
        {
          "indexed": false,
          "internalType": "bool",
          "name": "vesting",
          "type": "bool"
        }
      ],
      "name": "TokensPurchase",
      "type": "event"
    },
    {
      "inputs": [],
      "name": "STAGES",
      "outputs": [
        {
          "internalType": "uint8",
          "name": "",
          "type": "uint8"
        }
      ],
      "stateMutability": "view",
      "type": "function"
    },
    {
      "inputs": [],
      "name": "bonus",
      "outputs": [
        {
          "internalType": "uint8[4]",
          "name": "",
          "type": "uint8[4]"
        }
      ],
      "stateMutability": "view",
      "type": "function"
    },
    {
      "inputs": [
        {
          "internalType": "address",
          "name": "_beneficiary",
          "type": "address"
        },
        {
          "internalType": "uint256",
          "name": "_timestamp",
          "type": "uint256"
        },
        {
          "internalType": "bytes",
          "name": "_signature",
          "type": "bytes"
        }
      ],
      "name": "buyTokens",
      "outputs": [],
      "stateMutability": "payable",
      "type": "function"
    },
    {
      "inputs": [
        {
          "internalType": "uint256",
          "name": "weiAmount",
          "type": "uint256"
        }
      ],
      "name": "changeMATICEUR",
      "outputs": [
        {
          "internalType": "uint256",
          "name": "",
          "type": "uint256"
        }
      ],
      "stateMutability": "nonpayable",
      "type": "function"
    },
    {
      "inputs": [],
      "name": "closingTime",
      "outputs": [
        {
          "internalType": "uint256",
          "name": "",
          "type": "uint256"
        }
      ],
      "stateMutability": "view",
      "type": "function"
    },
    {
      "inputs": [
        {
          "internalType": "address",
          "name": "holder",
          "type": "address"
        }
      ],
      "name": "computeNextVestingScheduleIdForHolder",
      "outputs": [
        {
          "internalType": "bytes32",
          "name": "",
          "type": "bytes32"
        }
      ],
      "stateMutability": "view",
      "type": "function"
    },
    {
      "inputs": [
        {
          "internalType": "bytes32",
          "name": "vestingScheduleId",
          "type": "bytes32"
        }
      ],
      "name": "computeReleasableAmount",
      "outputs": [
        {
          "internalType": "uint256",
          "name": "",
          "type": "uint256"
        }
      ],
      "stateMutability": "view",
      "type": "function"
    },
    {
      "inputs": [
        {
          "internalType": "address",
          "name": "holder",
          "type": "address"
        },
        {
          "internalType": "uint256",
          "name": "index",
          "type": "uint256"
        }
      ],
      "name": "computeVestingScheduleIdForAddressAndIndex",
      "outputs": [
        {
          "internalType": "bytes32",
          "name": "",
          "type": "bytes32"
        }
      ],
      "stateMutability": "pure",
      "type": "function"
    },
    {
      "inputs": [],
      "name": "countAdresses",
      "outputs": [
        {
          "internalType": "uint16",
          "name": "",
          "type": "uint16"
        }
      ],
      "stateMutability": "view",
      "type": "function"
    },
    {
      "inputs": [],
      "name": "currentStage",
      "outputs": [
        {
          "internalType": "uint8",
          "name": "",
          "type": "uint8"
        }
      ],
      "stateMutability": "view",
      "type": "function"
    },
    {
      "inputs": [
        {
          "internalType": "uint256",
          "name": "_timeToDelay",
          "type": "uint256"
        }
      ],
      "name": "delayICO",
      "outputs": [],
      "stateMutability": "nonpayable",
      "type": "function"
    },
    {
      "inputs": [],
      "name": "eurGoals",
      "outputs": [
        {
          "internalType": "uint256[4]",
          "name": "",
          "type": "uint256[4]"
        }
      ],
      "stateMutability": "view",
      "type": "function"
    },
    {
      "inputs": [],
      "name": "eurRaised",
      "outputs": [
        {
          "internalType": "uint256",
          "name": "",
          "type": "uint256"
        }
      ],
      "stateMutability": "view",
      "type": "function"
    },
    {
      "inputs": [
        {
          "internalType": "address",
          "name": "holder",
          "type": "address"
        }
      ],
      "name": "getLastVestingScheduleForHolder",
      "outputs": [
        {
          "components": [
            {
              "internalType": "bool",
              "name": "initialized",
              "type": "bool"
            },
            {
              "internalType": "address",
              "name": "beneficiary",
              "type": "address"
            },
            {
              "internalType": "uint256",
              "name": "cliff",
              "type": "uint256"
            },
            {
              "internalType": "uint256",
              "name": "start",
              "type": "uint256"
            },
            {
              "internalType": "uint256",
              "name": "duration",
              "type": "uint256"
            },
            {
              "internalType": "uint256",
              "name": "slicePeriodSeconds",
              "type": "uint256"
            },
            {
              "internalType": "bool",
              "name": "revocable",
              "type": "bool"
            },
            {
              "internalType": "uint256",
              "name": "amountTotal",
              "type": "uint256"
            },
            {
              "internalType": "uint256",
              "name": "released",
              "type": "uint256"
            },
            {
              "internalType": "bool",
              "name": "revoked",
              "type": "bool"
            }
          ],
          "internalType": "struct TokenVesting.VestingSchedule",
          "name": "",
          "type": "tuple"
        }
      ],
      "stateMutability": "view",
      "type": "function"
    },
    {
      "inputs": [],
      "name": "getToken",
      "outputs": [
        {
          "internalType": "address",
          "name": "",
          "type": "address"
        }
      ],
      "stateMutability": "view",
      "type": "function"
    },
    {
      "inputs": [
        {
          "internalType": "uint256",
          "name": "index",
          "type": "uint256"
        }
      ],
      "name": "getVestingIdAtIndex",
      "outputs": [
        {
          "internalType": "bytes32",
          "name": "",
          "type": "bytes32"
        }
      ],
      "stateMutability": "view",
      "type": "function"
    },
    {
      "inputs": [
        {
          "internalType": "bytes32",
          "name": "vestingScheduleId",
          "type": "bytes32"
        }
      ],
      "name": "getVestingSchedule",
      "outputs": [
        {
          "components": [
            {
              "internalType": "bool",
              "name": "initialized",
              "type": "bool"
            },
            {
              "internalType": "address",
              "name": "beneficiary",
              "type": "address"
            },
            {
              "internalType": "uint256",
              "name": "cliff",
              "type": "uint256"
            },
            {
              "internalType": "uint256",
              "name": "start",
              "type": "uint256"
            },
            {
              "internalType": "uint256",
              "name": "duration",
              "type": "uint256"
            },
            {
              "internalType": "uint256",
              "name": "slicePeriodSeconds",
              "type": "uint256"
            },
            {
              "internalType": "bool",
              "name": "revocable",
              "type": "bool"
            },
            {
              "internalType": "uint256",
              "name": "amountTotal",
              "type": "uint256"
            },
            {
              "internalType": "uint256",
              "name": "released",
              "type": "uint256"
            },
            {
              "internalType": "bool",
              "name": "revoked",
              "type": "bool"
            }
          ],
          "internalType": "struct TokenVesting.VestingSchedule",
          "name": "",
          "type": "tuple"
        }
      ],
      "stateMutability": "view",
      "type": "function"
    },
    {
      "inputs": [
        {
          "internalType": "address",
          "name": "holder",
          "type": "address"
        },
        {
          "internalType": "uint256",
          "name": "index",
          "type": "uint256"
        }
      ],
      "name": "getVestingScheduleByAddressAndIndex",
      "outputs": [
        {
          "components": [
            {
              "internalType": "bool",
              "name": "initialized",
              "type": "bool"
            },
            {
              "internalType": "address",
              "name": "beneficiary",
              "type": "address"
            },
            {
              "internalType": "uint256",
              "name": "cliff",
              "type": "uint256"
            },
            {
              "internalType": "uint256",
              "name": "start",
              "type": "uint256"
            },
            {
              "internalType": "uint256",
              "name": "duration",
              "type": "uint256"
            },
            {
              "internalType": "uint256",
              "name": "slicePeriodSeconds",
              "type": "uint256"
            },
            {
              "internalType": "bool",
              "name": "revocable",
              "type": "bool"
            },
            {
              "internalType": "uint256",
              "name": "amountTotal",
              "type": "uint256"
            },
            {
              "internalType": "uint256",
              "name": "released",
              "type": "uint256"
            },
            {
              "internalType": "bool",
              "name": "revoked",
              "type": "bool"
            }
          ],
          "internalType": "struct TokenVesting.VestingSchedule",
          "name": "",
          "type": "tuple"
        }
      ],
      "stateMutability": "view",
      "type": "function"
    },
    {
      "inputs": [],
      "name": "getVestingSchedulesCount",
      "outputs": [
        {
          "internalType": "uint256",
          "name": "",
          "type": "uint256"
        }
      ],
      "stateMutability": "view",
      "type": "function"
    },
    {
      "inputs": [
        {
          "internalType": "address",
          "name": "_beneficiary",
          "type": "address"
        }
      ],
      "name": "getVestingSchedulesCountByBeneficiary",
      "outputs": [
        {
          "internalType": "uint256",
          "name": "",
          "type": "uint256"
        }
      ],
      "stateMutability": "view",
      "type": "function"
    },
    {
      "inputs": [],
      "name": "getVestingSchedulesTotalAmount",
      "outputs": [
        {
          "internalType": "uint256",
          "name": "",
          "type": "uint256"
        }
      ],
      "stateMutability": "view",
      "type": "function"
    },
    {
      "inputs": [],
      "name": "getWithdrawableAmount",
      "outputs": [
        {
          "internalType": "uint256",
          "name": "",
          "type": "uint256"
        }
      ],
      "stateMutability": "view",
      "type": "function"
    },
    {
      "inputs": [],
      "name": "openingTime",
      "outputs": [
        {
          "internalType": "uint256",
          "name": "",
          "type": "uint256"
        }
      ],
      "stateMutability": "view",
      "type": "function"
    },
    {
      "inputs": [],
      "name": "owner",
      "outputs": [
        {
          "internalType": "address",
          "name": "",
          "type": "address"
        }
      ],
      "stateMutability": "view",
      "type": "function"
    },
    {
      "inputs": [],
      "name": "rate",
      "outputs": [
        {
          "internalType": "uint8[4]",
          "name": "",
          "type": "uint8[4]"
        }
      ],
      "stateMutability": "view",
      "type": "function"
    },
    {
      "inputs": [
        {
          "internalType": "bytes32",
          "name": "vestingScheduleId",
          "type": "bytes32"
        },
        {
          "internalType": "uint256",
          "name": "amount",
          "type": "uint256"
        }
      ],
      "name": "release",
      "outputs": [],
      "stateMutability": "nonpayable",
      "type": "function"
    },
    {
      "inputs": [],
      "name": "renounceOwnership",
      "outputs": [],
      "stateMutability": "nonpayable",
      "type": "function"
    },
    {
      "inputs": [
        {
          "internalType": "bytes32",
          "name": "vestingScheduleId",
          "type": "bytes32"
        }
      ],
      "name": "revoke",
      "outputs": [],
      "stateMutability": "nonpayable",
      "type": "function"
    },
    {
      "inputs": [
        {
          "internalType": "address",
          "name": "newOwner",
          "type": "address"
        }
      ],
      "name": "transferOwnership",
      "outputs": [],
      "stateMutability": "nonpayable",
      "type": "function"
    },
    {
      "inputs": [
        {
          "internalType": "uint256",
          "name": "amount",
          "type": "uint256"
        }
      ],
      "name": "withdraw",
      "outputs": [],
      "stateMutability": "nonpayable",
      "type": "function"
    }
  ],
  "bytecode": "60c0604052600b805462ffffff191690556000600c819055600d553480156200002757600080fd5b5060405162003595380380620035958339810160408190526200004a9162000676565b600080546001600160a01b031916339081178255604051859282917f8be0079c531659141344cd1fd0a4f28419497f9722a3daafe3b4186f6b6457e0908290a350600180556001600160a01b038116620000a357600080fd5b6001600160a01b0390811660805285166200011d5760405162461bcd60e51b815260206004820152602f60248201527f537061726b736f2049434f3a2073797374656d2061646472657373206973207460448201526e6865207a65726f206164647265737360881b60648201526084015b60405180910390fd5b6001600160a01b038416620001855760405162461bcd60e51b815260206004820152602760248201527f537061726b736f2049434f3a2077616c6c657420697320746865207a65726f206044820152666164647265737360c81b606482015260840162000114565b6001600160a01b038316620001f55760405162461bcd60e51b815260206004820152602f60248201527f537061726b736f2049434f3a20746f6b656e20636f6e7472616374206973207460448201526e6865207a65726f206164647265737360881b606482015260840162000114565b6001600160a01b038216620002735760405162461bcd60e51b815260206004820152603c60248201527f537061726b736f2049434f3a2041676772656761746f72204d415449432f555360448201527f442063616e6e6f7420626520746865207a65726f206164647265737300000000606482015260840162000114565b6001600160a01b038116620002f15760405162461bcd60e51b815260206004820152603a60248201527f537061726b736f2049434f3a2041676772656761746f72204555522f5553442060448201527f63616e6e6f7420626520746865207a65726f2061646472657373000000000000606482015260840162000114565b600980546001600160a01b038088166001600160a01b0319928316179092556008805487841690831617905584821660a0526006805485841690831617905560078054928416929091169190911790556040805160808101825260148152600f6020820152600a9181018290526000606082015262000373919060046200050c565b5060408051608081018252620896708152622034246020820152623386a0918101919091526243a0b26060820152620003b190600f906004620005a6565b506040805160808101825260048082526006602083015260089282019290925260096060820152620003e791600e91906200050c565b506040805180820190915260c881526101f460208201526200040e906014906002620005de565b5060005b600460ff821610156200046857600f8160ff1660048110620004385762000438620006f6565b0154601360008282546200044d919062000722565b909155508190506200045f816200073d565b91505062000412565b50604080516080810182526000808252602082015262278d00918101620004918360016200075f565b8152602001620004a38360026200075f565b9052620004b590601690600462000615565b50620004c38160036200075f565b601a55620d2f00601b556362235ed0601c55620004e28160046200075f565b601c54620004f1919062000722565b601d555050601f805461ffff19169055506200078192505050565b600183019183908215620005945791602002820160005b838211156200056357835183826101000a81548160ff021916908360ff160217905550926020019260010160208160000104928301926001030262000523565b8015620005925782816101000a81549060ff021916905560010160208160000104928301926001030262000563565b505b50620005a292915062000646565b5090565b826004810192821562000594579160200282015b8281111562000594578251829062ffffff16905591602001919060010190620005ba565b826002810192821562000594579160200282015b8281111562000594578251829061ffff16905591602001919060010190620005f2565b826004810192821562000594579160200282015b828111156200059457825182559160200191906001019062000629565b5b80821115620005a2576000815560010162000647565b6001600160a01b03811681146200067357600080fd5b50565b600080600080600060a086880312156200068f57600080fd5b85516200069c816200065d565b6020870151909550620006af816200065d565b6040870151909450620006c2816200065d565b6060870151909350620006d5816200065d565b6080870151909250620006e8816200065d565b809150509295509295909350565b634e487b7160e01b600052603260045260246000fd5b634e487b7160e01b600052601160045260246000fd5b600082198211156200073857620007386200070c565b500190565b600060ff821660ff81036200075657620007566200070c565b60010192915050565b60008160001904831182151516156200077c576200077c6200070c565b500290565b60805160a051612ddc620007b96000396000505060008181610205015281816106d101528181610a450152610c680152612ddc6000f3fe6080604052600436106101cd5760003560e01c80637e913dc6116100f7578063b75c7dc611610095578063f51321d711610064578063f51321d714610515578063f7c469f014610535578063f9079b3714610555578063fe4c236b1461057557600080fd5b8063b75c7dc6146104a0578063b7a8807c146104c0578063ea1bb3d5146104d5578063f2fde38b146104f557600080fd5b806390be10cc116100d157806390be10cc146104365780639ef346b41461044b578063a0c083021461046b578063a32953d71461047e57600080fd5b80637e913dc6146103cb5780638af104da146103f85780638da5cb5b1461041857600080fd5b80634f8671c21161016f578063663470fc1161013e578063663470fc1461035557806366afd8ef14610381578063715018a6146103a157806375b4d78c146103b657600080fd5b80634f8671c2146102c05780635706d99a146102e05780635a7bb69a146103075780635bf5d54c1461033d57600080fd5b80632e1a7d4d116101ab5780632e1a7d4d1461025f5780633a3650cf1461028157806348deb471146102965780634b6753bc146102ab57600080fd5b806313083617146101d257806321df0da7146101f65780632c4e722e1461023d575b600080fd5b3480156101de57600080fd5b506002545b6040519081526020015b60405180910390f35b34801561020257600080fd5b507f00000000000000000000000000000000000000000000000000000000000000005b6040516001600160a01b0390911681526020016101ed565b34801561024957600080fd5b50610252610595565b6040516101ed91906127c4565b34801561026b57600080fd5b5061027f61027a3660046127f8565b6105ed565b005b34801561028d57600080fd5b50600d546101e3565b3480156102a257600080fd5b506004546101e3565b3480156102b757600080fd5b506101e36106ff565b3480156102cc57600080fd5b5061027f6102db3660046127f8565b610716565b3480156102ec57600080fd5b506102f5600481565b60405160ff90911681526020016101ed565b34801561031357600080fd5b506101e361032236600461282d565b6001600160a01b031660009081526005602052604090205490565b34801561034957600080fd5b50600b5460ff166102f5565b34801561036157600080fd5b50600b54610100900461ffff1660405161ffff90911681526020016101ed565b34801561038d57600080fd5b5061027f61039c366004612848565b6107d9565b3480156103ad57600080fd5b5061027f610a7a565b3480156103c257600080fd5b50610252610aee565b3480156103d757600080fd5b506103eb6103e636600461282d565b610b2a565b6040516101ed919061286a565b34801561040457600080fd5b506101e36104133660046128f5565b610c02565b34801561042457600080fd5b506000546001600160a01b0316610225565b34801561044257600080fd5b506101e3610c4a565b34801561045757600080fd5b506103eb6104663660046127f8565b610ce5565b61027f610479366004612935565b610d8c565b34801561048a57600080fd5b50610493610f76565b6040516101ed9190612a00565b3480156104ac57600080fd5b5061027f6104bb3660046127f8565b610fb1565b3480156104cc57600080fd5b50601c546101e3565b3480156104e157600080fd5b506101e36104f03660046127f8565b611173565b34801561050157600080fd5b5061027f61051036600461282d565b61125d565b34801561052157600080fd5b506103eb6105303660046128f5565b611347565b34801561054157600080fd5b506101e361055036600461282d565b611363565b34801561056157600080fd5b506101e36105703660046127f8565b611387565b34801561058157600080fd5b506101e36105903660046127f8565b61140f565b61059d612744565b60408051608081019182905290600e90600490826000855b825461010083900a900460ff168152602060019283018181049485019490930390920291018084116105b55790505050505050905090565b6002600154036106185760405162461bcd60e51b815260040161060f90612a28565b60405180910390fd5b60026001556000546001600160a01b031633146106475760405162461bcd60e51b815260040161060f90612a5f565b80610650610c4a565b10156106b25760405162461bcd60e51b815260206004820152602b60248201527f546f6b656e56657374696e673a206e6f7420656e6f756768207769746864726160448201526a7761626c652066756e647360a81b606482015260840161060f565b6106f86106c76000546001600160a01b031690565b6001600160a01b037f0000000000000000000000000000000000000000000000000000000000000000169083611630565b5060018055565b6000600c54601d546107119190612aaa565b905090565b6002600154036107385760405162461bcd60e51b815260040161060f90612a28565b60026001556000546001600160a01b031633146107675760405162461bcd60e51b815260040161060f90612a5f565b600081116107d05760405162461bcd60e51b815260206004820152603060248201527f537061726b736f2049434f3a207468652064656c6179206e65656420746f206260448201526f329039bab832b934b7b9103a3790181760811b606482015260840161060f565b6106f881611687565b6002600154036107fb5760405162461bcd60e51b815260040161060f90612a28565b60026001908155600083815260036020526040902054839160ff90911615151461082457600080fd5b60008181526003602052604090206008015460ff161561084357600080fd5b6000838152600360205260408120805491549091336001600160a01b036101009092048216811492919091161481806108795750805b6108f65760405162461bcd60e51b815260206004820152604260248201527f546f6b656e56657374696e673a206f6e6c792062656e6566696369617279206160448201527f6e64206f776e65722063616e2072656c656173652076657374656420746f6b656064820152616e7360f01b608482015260a40161060f565b6040805161014081018252845460ff808216151583526001600160a01b03610100928390041660208401526001870154938301939093526002860154606083015260038601546080830152600486015460a083015260058601548316151560c0830152600686015460e083015260078601549082015260088501549091161515610120820152600090610988906116a1565b905085811015610a005760405162461bcd60e51b815260206004820152603d60248201527f546f6b656e56657374696e673a2063616e6e6f742072656c6561736520746f6b60448201527f656e732c206e6f7420656e6f7567682076657374656420746f6b656e73000000606482015260840161060f565b858460070154610a109190612aaa565b600785015583546004546101009091046001600160a01b031690610a35908890612ac2565b600455610a6c6001600160a01b037f0000000000000000000000000000000000000000000000000000000000000000168289611630565b505060018055505050505050565b6000546001600160a01b03163314610aa45760405162461bcd60e51b815260040161060f90612a5f565b600080546040516001600160a01b03909116907f8be0079c531659141344cd1fd0a4f28419497f9722a3daafe3b4186f6b6457e0908390a3600080546001600160a01b0319169055565b610af6612744565b604080516080810191829052600a805460ff1682529091600490826001602086018084116105b55790505050505050905090565b610b32612762565b6001600160a01b03821660009081526005602052604081205460039190610b6190859061041390600190612ac2565b81526020808201929092526040908101600020815161014081018352815460ff808216151583526001600160a01b036101009283900416958301959095526001830154938201939093526002820154606082015260038201546080820152600482015460a082015260058201548416151560c0820152600682015460e082015260078201549281019290925260080154909116151561012082015292915050565b6040516bffffffffffffffffffffffff19606084901b166020820152603481018290526000906054016040516020818303038152906040528051906020012090505b92915050565b600480546040516370a0823160e01b815230928101929092526000917f00000000000000000000000000000000000000000000000000000000000000006001600160a01b0316906370a0823190602401602060405180830381865afa158015610cb7573d6000803e3d6000fd5b505050506040513d601f19601f82011682018060405250810190610cdb9190612ad9565b6107119190612ac2565b610ced612762565b50600090815260036020818152604092839020835161014081018552815460ff808216151583526001600160a01b0361010092839004169483019490945260018301549582019590955260028201546060820152928101546080840152600481015460a084015260058101548216151560c0840152600681015460e0840152600781015493830193909352600890920154909116151561012082015290565b6040516bffffffffffffffffffffffff193360601b1660208201526034810183905282908290600090605401604051602081830303815290604052805190602001209050600081604051602001610e0f91907f19457468657265756d205369676e6564204d6573736167653a0a3332000000008152601c810191909152603c0190565b60408051601f1981840301815291905280516020909101206009549091506001600160a01b0316610e40828561177a565b6001600160a01b031614610ea75760405162461bcd60e51b815260206004820152602860248201527f537061726b736f2049434f3a20496e76616c696420707572636861736520736960448201526733b730ba3ab9329760c11b606482015260840161060f565b346000610eb38261140f565b9050610ebf898261182e565b6000610eca82611b8a565b905081600d6000828254610ede9190612aaa565b90915550610eee90508a82611c5e565b601f54604080518581526020810185905280820184905260ff8084161515606083015261010090930490921615156080830152516001600160a01b038c169133917fb02533d68fabcc71912edf38af28a170279edc0ca30f4f9993273f4d98df61049181900360a00190a3610f61611c6e565b610f6a8a611c84565b50505050505050505050565b610f7e612744565b60408051608081019182905290600f9060049082845b815481526020019060010190808311610f94575050505050905090565b6000546001600160a01b03163314610fdb5760405162461bcd60e51b815260040161060f90612a5f565b600081815260036020526040902054819060ff161515600114610ffd57600080fd5b60008181526003602052604090206008015460ff161561101c57600080fd5b6000828152600360205260409020600581015460ff1615156001146110925760405162461bcd60e51b815260206004820152602660248201527f546f6b656e56657374696e673a2076657374696e67206973206e6f74207265766044820152656f6361626c6560d01b606482015260840161060f565b6040805161014081018252825460ff808216151583526001600160a01b03610100928390041660208401526001850154938301939093526002840154606083015260038401546080830152600484015460a083015260058401548316151560c0830152600684015460e083015260078401549082015260088301549091161515610120820152600090611124906116a1565b905080156111365761113684826107d9565b60008260070154836006015461114c9190612ac2565b90508060045461115c9190612ac2565b6004555050600801805460ff191660011790555050565b600081815260036020526040812054829060ff16151560011461119557600080fd5b60008181526003602052604090206008015460ff16156111b457600080fd5b600083815260036020818152604092839020835161014081018552815460ff808216151583526001600160a01b0361010092839004169483019490945260018301549582019590955260028201546060820152928101546080840152600481015460a084015260058101548216151560c0840152600681015460e08401526007810154938301939093526008830154161515610120820152611255906116a1565b949350505050565b6000546001600160a01b031633146112875760405162461bcd60e51b815260040161060f90612a5f565b6001600160a01b0381166112ec5760405162461bcd60e51b815260206004820152602660248201527f4f776e61626c653a206e6577206f776e657220697320746865207a65726f206160448201526564647265737360d01b606482015260840161060f565b600080546040516001600160a01b03808516939216917f8be0079c531659141344cd1fd0a4f28419497f9722a3daafe3b4186f6b6457e091a3600080546001600160a01b0319166001600160a01b0392909216919091179055565b61134f612762565b61135c6104668484610c02565b9392505050565b6001600160a01b038116600090815260056020526040812054610c44908390610c02565b600061139260025490565b82106113ea5760405162461bcd60e51b815260206004820152602160248201527f546f6b656e56657374696e673a20696e646578206f7574206f6620626f756e646044820152607360f81b606482015260840161060f565b600282815481106113fd576113fd612af2565b90600052602060002001549050919050565b600080600660009054906101000a90046001600160a01b03166001600160a01b031663feaf968c6040518163ffffffff1660e01b815260040160a060405180830381865afa158015611465573d6000803e3d6000fd5b505050506040513d601f19601f820116820180604052508101906114899190612b22565b5050509150506000600760009054906101000a90046001600160a01b03166001600160a01b031663feaf968c6040518163ffffffff1660e01b815260040160a060405180830381865afa1580156114e4573d6000803e3d6000fd5b505050506040513d601f19601f820116820180604052508101906115089190612b22565b50506007546040805163313ce56760e01b815290519395506001600160a01b03909116935063313ce56792600480830193506020928290030181865afa158015611556573d6000803e3d6000fd5b505050506040513d601f19601f8201168201806040525081019061157a9190612b72565b61158590600a612c79565b600660009054906101000a90046001600160a01b03166001600160a01b031663313ce5676040518163ffffffff1660e01b8152600401602060405180830381865afa1580156115d8573d6000803e3d6000fd5b505050506040513d601f19601f820116820180604052508101906115fc9190612b72565b61160790600a612c79565b6116119190612c88565b8161161c8487612caa565b6116269190612c88565b6112559190612caa565b604080516001600160a01b038416602482015260448082018490528251808303909101815260649091019091526020810180516001600160e01b031663a9059cbb60e01b179052611682908490611de7565b505050565b80600c60008282546116999190612aaa565b909155505050565b6000806116ac611eb9565b905082604001518110806116c7575061012083015115156001145b156116d55750600092915050565b826080015183606001516116e99190612aaa565b8110611704578261010001518360e0015161135c9190612ac2565b60008360600151826117169190612ac2565b60a0850151909150600061172a8284612c88565b905060006117388383612caa565b905060008760800151828960e001516117519190612caa565b61175b9190612c88565b90508761010001518161176e9190612ac2565b98975050505050505050565b60008060008084516041036117a35750505060208201516040830151606084015160001a611818565b84516040036117d05750505060408201516020830151906001600160ff1b0381169060ff1c601b01611818565b60405162461bcd60e51b815260206004820152601f60248201527f45434453413a20696e76616c6964207369676e6174757265206c656e67746800604482015260640161060f565b61182486828585611ec9565b9695505050505050565b6001600160a01b0382166000908152601e6020526040902054829060ff16156118bf5760405162461bcd60e51b815260206004820152603a60248201527f537061726b736f2049434f3a204f6e65207472616e73616374696f6e2070657260448201527f2077616c6c657420666f7220746865203530302066697273742e000000000000606482015260840161060f565b6001600160a01b0383166119315760405162461bcd60e51b815260206004820152603360248201527f537061726b736f2049434f3a2062656e656669636961727920616464726573736044820152721039b437bab632103132903232b334b732b21760691b606482015260840161060f565b601c5461193c611eb9565b101561198a5760405162461bcd60e51b815260206004820152601e60248201527f537061726b736f2049434f3a2049434f206469646e27742073746172742e0000604482015260640161060f565b601d54611995611eb9565b11156119f55760405162461bcd60e51b815260206004820152602960248201527f537061726b736f2049434f3a2049434f206973206e6f7720636c6f7365642c206044820152683a34b6b2b9903ab81760b91b606482015260840161060f565b601354600d5410611a665760405162461bcd60e51b815260206004820152603560248201527f537061726b736f2049434f3a2049434f206973206e6f7720636c6f7365642c2060448201527430b63610333ab732399030b932903930b4b9b2b21760591b606482015260840161060f565b600b5460ff1615611ad757600082116116825760405162461bcd60e51b815260206004820152602d60248201527f537061726b736f2049434f3a20416d6f756e74206e65656420746f206265207360448201526c3ab832b934b7b9103a3790181760991b606482015260840161060f565b60006101f4611aef600b5461ffff6101009091041690565b10611afc57601554611b00565b6014545b905080831015611b845760405162461bcd60e51b815260206004820152604360248201527f537061726b736f2049434f3a20416d6f756e74206e65656420746f206265207360448201527f75706572696f7220746f20746865206d696e696d756d2045555220646566696e60648201526232b21760e91b608482015260a40161060f565b50505050565b600b546000908190600e9060ff1660048110611ba857611ba8612af2565b602081049091015460ff601f9092166101000a90041690506000611bcc8285612c88565b611bd7906064612caa565b905060006101f4611bf1600b5461ffff6101009091041690565b11611c0657611c0182601e612caa565b611c3e565b600b54600a9060ff1660048110611c1f57611c1f612af2565b602081049190910154611c3e91601f166101000a900460ff1683612caa565b9050611c4b606482612c88565b611c559083612aaa565b95945050505050565b611c688282612069565b5050565b565b600854611c6c906001600160a01b0316346120d0565b600b546101f490610100900461ffff161015611cf4576001600160a01b0381166000908152601e60205260409020805460ff19166001908117909155600b805461ffff6101009091041691611cd883612cc9565b91906101000a81548161ffff021916908361ffff160217905550505b6000805b600b5460ff90811690821611611d3e57600f8160ff1660048110611d1e57611d1e612af2565b0154611d2a9083612aaa565b915080611d3681612cea565b915050611cf8565b5080600d5410158015611d585750600b54600460ff909116105b15611c6857600b805460ff16906000611d7083612cea565b82546101009290920a60ff818102199093169183160217909155600b546002911610159050611da0576000611da3565b60015b601f805460ff1916911515919091179055600b5460ff16600003611dc8576000611dcb565b60015b601f80549115156101000261ff00199092169190911790555050565b6000611e3c826040518060400160405280602081526020017f5361666545524332303a206c6f772d6c6576656c2063616c6c206661696c6564815250856001600160a01b03166121e99092919063ffffffff16565b8051909150156116825780806020019051810190611e5a9190612d09565b6116825760405162461bcd60e51b815260206004820152602a60248201527f5361666545524332303a204552433230206f7065726174696f6e20646964206e6044820152691bdd081cdd58d8d9595960b21b606482015260840161060f565b6000600c54426107119190612ac2565b60007f7fffffffffffffffffffffffffffffff5d576e7357a4501ddfe92f46681b20a0821115611f465760405162461bcd60e51b815260206004820152602260248201527f45434453413a20696e76616c6964207369676e6174757265202773272076616c604482015261756560f01b606482015260840161060f565b8360ff16601b1480611f5b57508360ff16601c145b611fb25760405162461bcd60e51b815260206004820152602260248201527f45434453413a20696e76616c6964207369676e6174757265202776272076616c604482015261756560f01b606482015260840161060f565b6040805160008082526020820180845288905260ff871692820192909252606081018590526080810184905260019060a0016020604051602081039080840390855afa158015612006573d6000803e3d6000fd5b5050604051601f1901519150506001600160a01b038116611c555760405162461bcd60e51b815260206004820152601860248201527f45434453413a20696e76616c6964207369676e61747572650000000000000000604482015260640161060f565b600b5460009060ff161561207f57601a54612082565b60015b600b5490915060009060ff161561209b57601b5461209e565b60015b601d54600b54919250611b849186919060169060ff16600481106120c4576120c4612af2565b015485856000896121f8565b804710156121205760405162461bcd60e51b815260206004820152601d60248201527f416464726573733a20696e73756666696369656e742062616c616e6365000000604482015260640161060f565b6000826001600160a01b03168260405160006040518083038185875af1925050503d806000811461216d576040519150601f19603f3d011682016040523d82523d6000602084013e612172565b606091505b50509050806116825760405162461bcd60e51b815260206004820152603a60248201527f416464726573733a20756e61626c6520746f2073656e642076616c75652c207260448201527f6563697069656e74206d61792068617665207265766572746564000000000000606482015260840161060f565b606061125584846000856125e3565b600084116122535760405162461bcd60e51b815260206004820152602260248201527f546f6b656e56657374696e673a206475726174696f6e206d757374206265203e604482015261020360f41b606482015260840161060f565b600081116122a35760405162461bcd60e51b815260206004820181905260248201527f546f6b656e56657374696e673a20616d6f756e74206d757374206265203e2030604482015260640161060f565b8385106123035760405162461bcd60e51b815260206004820152602860248201527f546f6b656e56657374696e673a205f636c696666206d757374206265203c205f604482015267323ab930ba34b7b760c11b606482015260840161060f565b600183101561236a5760405162461bcd60e51b815260206004820152602d60248201527f546f6b656e56657374696e673a20736c696365506572696f645365636f6e647360448201526c206d757374206265203e3d203160981b606482015260840161060f565b80612373610c4a565b10156123fa5760405162461bcd60e51b815260206004820152604a60248201527f546f6b656e56657374696e673a2063616e6e6f7420637265617465207665737460448201527f696e67207363686564756c652062656361757365206e6f742073756666696369606482015269656e7420746f6b656e7360b01b608482015260a40161060f565b600061240588611363565b905060006124138789612aaa565b90506040518061014001604052806001151581526020018a6001600160a01b03168152602001828152602001898152602001878152602001868152602001851515815260200184815260200160008152602001600015158152506003600084815260200190815260200160002060008201518160000160006101000a81548160ff02191690831515021790555060208201518160000160016101000a8154816001600160a01b0302191690836001600160a01b0316021790555060408201518160010155606082015181600201556080820151816003015560a0820151816004015560c08201518160050160006101000a81548160ff02191690831515021790555060e0820151816006015561010082015181600701556101208201518160080160006101000a81548160ff02191690831515021790555090505082600460008282546125609190612aaa565b90915550506002805460018181019092557f405787fa12a823e0f2b7631cc41b3ba8828b3321ca811111fa75cd3aa3bb5ace018390556001600160a01b038a16600090815260056020526040902054906125bb908290612aaa565b6001600160a01b03909a16600090815260056020526040902099909955505050505050505050565b6060824710156126445760405162461bcd60e51b815260206004820152602660248201527f416464726573733a20696e73756666696369656e742062616c616e636520666f6044820152651c8818d85b1b60d21b606482015260840161060f565b843b6126925760405162461bcd60e51b815260206004820152601d60248201527f416464726573733a2063616c6c20746f206e6f6e2d636f6e7472616374000000604482015260640161060f565b600080866001600160a01b031685876040516126ae9190612d57565b60006040518083038185875af1925050503d80600081146126eb576040519150601f19603f3d011682016040523d82523d6000602084013e6126f0565b606091505b509150915061270082828661270b565b979650505050505050565b6060831561271a57508161135c565b82511561272a5782518084602001fd5b8160405162461bcd60e51b815260040161060f9190612d73565b60405180608001604052806004906020820280368337509192915050565b60405180610140016040528060001515815260200160006001600160a01b031681526020016000815260200160008152602001600081526020016000815260200160001515815260200160008152602001600081526020016000151581525090565b60808101818360005b60048110156127ef57815160ff168352602092830192909101906001016127cd565b50505092915050565b60006020828403121561280a57600080fd5b5035919050565b80356001600160a01b038116811461282857600080fd5b919050565b60006020828403121561283f57600080fd5b61135c82612811565b6000806040838503121561285b57600080fd5b50508035926020909101359150565b8151151581526101408101602083015161288f60208401826001600160a01b03169052565b5060408301516040830152606083015160608301526080830151608083015260a083015160a083015260c08301516128cb60c084018215159052565b5060e083810151908301526101008084015190830152610120928301511515929091019190915290565b6000806040838503121561290857600080fd5b61291183612811565b946020939093013593505050565b634e487b7160e01b600052604160045260246000fd5b60008060006060848603121561294a57600080fd5b61295384612811565b925060208401359150604084013567ffffffffffffffff8082111561297757600080fd5b818601915086601f83011261298b57600080fd5b81358181111561299d5761299d61291f565b604051601f8201601f19908116603f011681019083821181831017156129c5576129c561291f565b816040528281528960208487010111156129de57600080fd5b8260208601602083013760006020848301015280955050505050509250925092565b60808101818360005b60048110156127ef578151835260209283019290910190600101612a09565b6020808252601f908201527f5265656e7472616e637947756172643a207265656e7472616e742063616c6c00604082015260600190565b6020808252818101527f4f776e61626c653a2063616c6c6572206973206e6f7420746865206f776e6572604082015260600190565b634e487b7160e01b600052601160045260246000fd5b60008219821115612abd57612abd612a94565b500190565b600082821015612ad457612ad4612a94565b500390565b600060208284031215612aeb57600080fd5b5051919050565b634e487b7160e01b600052603260045260246000fd5b805169ffffffffffffffffffff8116811461282857600080fd5b600080600080600060a08688031215612b3a57600080fd5b612b4386612b08565b9450602086015193506040860151925060608601519150612b6660808701612b08565b90509295509295909350565b600060208284031215612b8457600080fd5b815160ff8116811461135c57600080fd5b600181815b80851115612bd0578160001904821115612bb657612bb6612a94565b80851615612bc357918102915b93841c9390800290612b9a565b509250929050565b600082612be757506001610c44565b81612bf457506000610c44565b8160018114612c0a5760028114612c1457612c30565b6001915050610c44565b60ff841115612c2557612c25612a94565b50506001821b610c44565b5060208310610133831016604e8410600b8410161715612c53575081810a610c44565b612c5d8383612b95565b8060001904821115612c7157612c71612a94565b029392505050565b600061135c60ff841683612bd8565b600082612ca557634e487b7160e01b600052601260045260246000fd5b500490565b6000816000190483118215151615612cc457612cc4612a94565b500290565b600061ffff808316818103612ce057612ce0612a94565b6001019392505050565b600060ff821660ff8103612d0057612d00612a94565b60010192915050565b600060208284031215612d1b57600080fd5b8151801515811461135c57600080fd5b60005b83811015612d46578181015183820152602001612d2e565b83811115611b845750506000910152565b60008251612d69818460208701612d2b565b9190910192915050565b6020815260008251806020840152612d92816040850160208701612d2b565b601f01601f1916919091016040019291505056fea2646970667358221220b03684ab06e2fdc4c128418e08b0ecc824123611b6fa648b78c7148e4a284d5a64736f6c634300080d0033",
  "sourcePath": "c:/Users/Valen/Desktop/Projet/Sparkso/sparkso-token/contracts/SparksoICO.sol",
  "compiler": {
    "name": "solc",
    "version": "0.8.13+commit.abaa5c0e"
  },
  "functionHashes": {
    "STAGES()": "5706d99a",
    "bonus()": "75b4d78c",
    "buyTokens(address,uint256,bytes)": "a0c08302",
    "changeMATICEUR(uint256)": "fe4c236b",
    "closingTime()": "4b6753bc",
    "computeNextVestingScheduleIdForHolder(address)": "f7c469f0",
    "computeReleasableAmount(bytes32)": "ea1bb3d5",
    "computeVestingScheduleIdForAddressAndIndex(address,uint256)": "8af104da",
    "countAdresses()": "663470fc",
    "currentStage()": "5bf5d54c",
    "delayICO(uint256)": "4f8671c2",
    "eurGoals()": "a32953d7",
    "eurRaised()": "3a3650cf",
    "getLastVestingScheduleForHolder(address)": "7e913dc6",
    "getToken()": "21df0da7",
    "getVestingIdAtIndex(uint256)": "f9079b37",
    "getVestingSchedule(bytes32)": "9ef346b4",
    "getVestingScheduleByAddressAndIndex(address,uint256)": "f51321d7",
    "getVestingSchedulesCount()": "13083617",
    "getVestingSchedulesCountByBeneficiary(address)": "5a7bb69a",
    "getVestingSchedulesTotalAmount()": "48deb471",
    "getWithdrawableAmount()": "90be10cc",
    "openingTime()": "b7a8807c",
    "owner()": "8da5cb5b",
    "rate()": "2c4e722e",
    "release(bytes32,uint256)": "66afd8ef",
    "renounceOwnership()": "715018a6",
    "revoke(bytes32)": "b75c7dc6",
    "transferOwnership(address)": "f2fde38b",
    "withdraw(uint256)": "2e1a7d4d"
  },
  "gasEstimates": {
    "creation": {
      "codeDepositCost": "2348000",
      "executionCost": "infinite",
      "totalCost": "infinite"
    },
    "external": {
      "STAGES()": "272",
      "bonus()": "infinite",
      "buyTokens(address,uint256,bytes)": "infinite",
      "changeMATICEUR(uint256)": "infinite",
      "closingTime()": "4589",
      "computeNextVestingScheduleIdForHolder(address)": "infinite",
      "computeReleasableAmount(bytes32)": "infinite",
      "computeVestingScheduleIdForAddressAndIndex(address,uint256)": "624",
      "countAdresses()": "2351",
      "currentStage()": "2419",
      "delayICO(uint256)": "55991",
      "eurGoals()": "infinite",
      "eurRaised()": "2349",
      "getLastVestingScheduleForHolder(address)": "22867",
      "getToken()": "infinite",
      "getVestingIdAtIndex(uint256)": "6792",
      "getVestingSchedule(bytes32)": "20313",
      "getVestingScheduleByAddressAndIndex(address,uint256)": "infinite",
      "getVestingSchedulesCount()": "2317",
      "getVestingSchedulesCountByBeneficiary(address)": "2616",
      "getVestingSchedulesTotalAmount()": "2371",
      "getWithdrawableAmount()": "infinite",
      "openingTime()": "2348",
      "owner()": "2421",
      "rate()": "infinite",
      "release(bytes32,uint256)": "infinite",
      "renounceOwnership()": "30254",
      "revoke(bytes32)": "infinite",
      "transferOwnership(address)": "30511",
      "withdraw(uint256)": "infinite"
    },
    "internal": {
      "_delayICO(uint256)": "24306",
      "_deliverTokens(address,uint256)": "infinite",
      "_forwardFunds()": "infinite",
      "_getCountAddresses()": "infinite",
      "_getCurrentTime()": "2209",
      "_getTokenAmount(uint256)": "infinite",
      "_postValidatePurchase(address)": "infinite",
      "_preValidatePurchase(address,uint256)": "infinite",
      "_processPurchase(address,uint256)": "infinite",
      "_updatePurchasingState()": "9"
    }
  }
}